:0A0000008316FF2390008312FD2BEE
:100712008312A0001F141F08C3399F001F08200462
:100722009F00000083129F149F18952B1F101E0814
:1007320008008312A100A201220A0319080021085D
:100742002202031CA62B8711A72B87150130A000BC
:100752002008A2079D2B8312A100A201220A0319DD
:10076200080021082202031CB82B8712B92B871616
:100772000130A0002008A207AF2B8312A100A20122
:10078200220A0319080021082202031CCA2B07129D
:10079200CB2B07160130A0002008A207C12B013085
:1007A20083129F00103083169F0070309100073033
:1007B2008312990083168501073087008312850111
:1007C20087010800D02310308312A3002308A4005D
:1007D200240889239A2314308312A3002308A50036
:1007E20025088923AC2318308312A3002308A6000E
:0C07F20026088923BE23E42B8301E32B9F
:02400E0084FF2D
:00000001FF
