:0A0000008316FF2390008312FD2BEE
:10071E008312A0001F141F08C3399F001F08200456
:10072E009F00000083129F149F189B2B1F101E0802
:10073E0008008312A100A201220A03190800210851
:10074E002202031CAC2B8711AD2B87150130A000A4
:10075E002008A207A32B8312A100A201220A0319CB
:10076E00080021082202031CBE2B8712BF2B8716FE
:10077E000130A0002008A207B52B8312A100A20110
:10078E00220A0319080021082202031CD02B07128B
:10079E00D12B07160130A0002008A207C72B01306D
:1007AE0083129F00103083169F0070309100073027
:1007BE008312990083168501073087008312850105
:1007CE0087010800D62300308312071801308F23CB
:1007DE00A02300308312871801308F23B2230030FC
:1007EE008312071901308F23C423EA2B8301E92BCF
:02400E0084FF2D
:00000001FF
